{
  "_format": "hh-sol-artifact-1",
  "contractName": "Staking",
  "sourceName": "contracts/Staking.sol",
  "abi": [
    {
      "inputs": [
        {
          "internalType": "string",
          "name": "name_",
          "type": "string"
        },
        {
          "internalType": "string",
          "name": "symbol_",
          "type": "string"
        },
        {
          "internalType": "uint256",
          "name": "chainID_",
          "type": "uint256"
        },
        {
          "internalType": "address",
          "name": "systemContractAddress",
          "type": "address"
        }
      ],
      "stateMutability": "nonpayable",
      "type": "constructor"
    },
    {
      "inputs": [],
      "name": "NoRewardsToClaim",
      "type": "error"
    },
    {
      "inputs": [],
      "name": "NotAuthorized",
      "type": "error"
    },
    {
      "inputs": [],
      "name": "Overflow",
      "type": "error"
    },
    {
      "inputs": [],
      "name": "SenderNotSystemContract",
      "type": "error"
    },
    {
      "inputs": [],
      "name": "Underflow",
      "type": "error"
    },
    {
      "inputs": [
        {
          "internalType": "uint8",
          "name": "action",
          "type": "uint8"
        }
      ],
      "name": "UnknownAction",
      "type": "error"
    },
    {
      "inputs": [],
      "name": "WrongAmount",
      "type": "error"
    },
    {
      "inputs": [
        {
          "internalType": "uint256",
          "name": "chainID",
          "type": "uint256"
        }
      ],
      "name": "WrongChain",
      "type": "error"
    },
    {
      "anonymous": false,
      "inputs": [
        {
          "indexed": true,
          "internalType": "address",
          "name": "owner",
          "type": "address"
        },
        {
          "indexed": true,
          "internalType": "address",
          "name": "spender",
          "type": "address"
        },
        {
          "indexed": false,
          "internalType": "uint256",
          "name": "value",
          "type": "uint256"
        }
      ],
      "name": "Approval",
      "type": "event"
    },
    {
      "anonymous": false,
      "inputs": [
        {
          "indexed": true,
          "internalType": "address",
          "name": "from",
          "type": "address"
        },
        {
          "indexed": true,
          "internalType": "address",
          "name": "to",
          "type": "address"
        },
        {
          "indexed": false,
          "internalType": "uint256",
          "name": "value",
          "type": "uint256"
        }
      ],
      "name": "Transfer",
      "type": "event"
    },
    {
      "inputs": [
        {
          "internalType": "address",
          "name": "owner",
          "type": "address"
        },
        {
          "internalType": "address",
          "name": "spender",
          "type": "address"
        }
      ],
      "name": "allowance",
      "outputs": [
        {
          "internalType": "uint256",
          "name": "",
          "type": "uint256"
        }
      ],
      "stateMutability": "view",
      "type": "function"
    },
    {
      "inputs": [
        {
          "internalType": "address",
          "name": "spender",
          "type": "address"
        },
        {
          "internalType": "uint256",
          "name": "amount",
          "type": "uint256"
        }
      ],
      "name": "approve",
      "outputs": [
        {
          "internalType": "bool",
          "name": "",
          "type": "bool"
        }
      ],
      "stateMutability": "nonpayable",
      "type": "function"
    },
    {
      "inputs": [
        {
          "internalType": "address",
          "name": "account",
          "type": "address"
        }
      ],
      "name": "balanceOf",
      "outputs": [
        {
          "internalType": "uint256",
          "name": "",
          "type": "uint256"
        }
      ],
      "stateMutability": "view",
      "type": "function"
    },
    {
      "inputs": [
        {
          "internalType": "address",
          "name": "",
          "type": "address"
        }
      ],
      "name": "beneficiary",
      "outputs": [
        {
          "internalType": "address",
          "name": "",
          "type": "address"
        }
      ],
      "stateMutability": "view",
      "type": "function"
    },
    {
      "inputs": [],
      "name": "chainID",
      "outputs": [
        {
          "internalType": "uint256",
          "name": "",
          "type": "uint256"
        }
      ],
      "stateMutability": "view",
      "type": "function"
    },
    {
      "inputs": [
        {
          "internalType": "address",
          "name": "staker",
          "type": "address"
        }
      ],
      "name": "claimRewards",
      "outputs": [],
      "stateMutability": "nonpayable",
      "type": "function"
    },
    {
      "inputs": [],
      "name": "decimals",
      "outputs": [
        {
          "internalType": "uint8",
          "name": "",
          "type": "uint8"
        }
      ],
      "stateMutability": "view",
      "type": "function"
    },
    {
      "inputs": [
        {
          "internalType": "address",
          "name": "spender",
          "type": "address"
        },
        {
          "internalType": "uint256",
          "name": "subtractedValue",
          "type": "uint256"
        }
      ],
      "name": "decreaseAllowance",
      "outputs": [
        {
          "internalType": "bool",
          "name": "",
          "type": "bool"
        }
      ],
      "stateMutability": "nonpayable",
      "type": "function"
    },
    {
      "inputs": [
        {
          "internalType": "address",
          "name": "spender",
          "type": "address"
        },
        {
          "internalType": "uint256",
          "name": "addedValue",
          "type": "uint256"
        }
      ],
      "name": "increaseAllowance",
      "outputs": [
        {
          "internalType": "bool",
          "name": "",
          "type": "bool"
        }
      ],
      "stateMutability": "nonpayable",
      "type": "function"
    },
    {
      "inputs": [
        {
          "internalType": "address",
          "name": "",
          "type": "address"
        }
      ],
      "name": "lastStakeTime",
      "outputs": [
        {
          "internalType": "uint256",
          "name": "",
          "type": "uint256"
        }
      ],
      "stateMutability": "view",
      "type": "function"
    },
    {
      "inputs": [],
      "name": "name",
      "outputs": [
        {
          "internalType": "string",
          "name": "",
          "type": "string"
        }
      ],
      "stateMutability": "view",
      "type": "function"
    },
    {
      "inputs": [
        {
          "components": [
            {
              "internalType": "bytes",
              "name": "origin",
              "type": "bytes"
            },
            {
              "internalType": "address",
              "name": "sender",
              "type": "address"
            },
            {
              "internalType": "uint256",
              "name": "chainID",
              "type": "uint256"
            }
          ],
          "internalType": "struct zContext",
          "name": "context",
          "type": "tuple"
        },
        {
          "internalType": "address",
          "name": "zrc20",
          "type": "address"
        },
        {
          "internalType": "uint256",
          "name": "amount",
          "type": "uint256"
        },
        {
          "internalType": "bytes",
          "name": "message",
          "type": "bytes"
        }
      ],
      "name": "onCrossChainCall",
      "outputs": [],
      "stateMutability": "nonpayable",
      "type": "function"
    },
    {
      "inputs": [
        {
          "internalType": "address",
          "name": "staker",
          "type": "address"
        }
      ],
      "name": "queryRewards",
      "outputs": [
        {
          "internalType": "uint256",
          "name": "",
          "type": "uint256"
        }
      ],
      "stateMutability": "view",
      "type": "function"
    },
    {
      "inputs": [],
      "name": "rewardRate",
      "outputs": [
        {
          "internalType": "uint256",
          "name": "",
          "type": "uint256"
        }
      ],
      "stateMutability": "view",
      "type": "function"
    },
    {
      "inputs": [
        {
          "internalType": "address",
          "name": "",
          "type": "address"
        }
      ],
      "name": "stake",
      "outputs": [
        {
          "internalType": "uint256",
          "name": "",
          "type": "uint256"
        }
      ],
      "stateMutability": "view",
      "type": "function"
    },
    {
      "inputs": [],
      "name": "symbol",
      "outputs": [
        {
          "internalType": "string",
          "name": "",
          "type": "string"
        }
      ],
      "stateMutability": "view",
      "type": "function"
    },
    {
      "inputs": [],
      "name": "systemContract",
      "outputs": [
        {
          "internalType": "contract SystemContract",
          "name": "",
          "type": "address"
        }
      ],
      "stateMutability": "view",
      "type": "function"
    },
    {
      "inputs": [],
      "name": "totalSupply",
      "outputs": [
        {
          "internalType": "uint256",
          "name": "",
          "type": "uint256"
        }
      ],
      "stateMutability": "view",
      "type": "function"
    },
    {
      "inputs": [
        {
          "internalType": "address",
          "name": "to",
          "type": "address"
        },
        {
          "internalType": "uint256",
          "name": "amount",
          "type": "uint256"
        }
      ],
      "name": "transfer",
      "outputs": [
        {
          "internalType": "bool",
          "name": "",
          "type": "bool"
        }
      ],
      "stateMutability": "nonpayable",
      "type": "function"
    },
    {
      "inputs": [
        {
          "internalType": "address",
          "name": "from",
          "type": "address"
        },
        {
          "internalType": "address",
          "name": "to",
          "type": "address"
        },
        {
          "internalType": "uint256",
          "name": "amount",
          "type": "uint256"
        }
      ],
      "name": "transferFrom",
      "outputs": [
        {
          "internalType": "bool",
          "name": "",
          "type": "bool"
        }
      ],
      "stateMutability": "nonpayable",
      "type": "function"
    },
    {
      "inputs": [
        {
          "internalType": "address",
          "name": "",
          "type": "address"
        }
      ],
      "name": "withdraw",
      "outputs": [
        {
          "internalType": "bytes",
          "name": "",
          "type": "bytes"
        }
      ],
      "stateMutability": "view",
      "type": "function"
    }
  ],
  "bytecode": "0x60c060405260016005553480156200001657600080fd5b50604051620031e5380380620031e583398181016040528101906200003c919062000217565b8383816003908051906020019062000056929190620000bb565b5080600490805190602001906200006f929190620000bb565b5050508073ffffffffffffffffffffffffffffffffffffffff1660808173ffffffffffffffffffffffffffffffffffffffff1660601b815250508160a0818152505050505050620004bd565b828054620000c9906200039a565b90600052602060002090601f016020900481019282620000ed576000855562000139565b82601f106200010857805160ff191683800117855562000139565b8280016001018555821562000139579182015b82811115620001385782518255916020019190600101906200011b565b5b5090506200014891906200014c565b5090565b5b80821115620001675760008160009055506001016200014d565b5090565b6000620001826200017c84620002f0565b620002c7565b905082815260208101848484011115620001a157620001a062000469565b5b620001ae84828562000364565b509392505050565b600081519050620001c78162000489565b92915050565b600082601f830112620001e557620001e462000464565b5b8151620001f78482602086016200016b565b91505092915050565b6000815190506200021181620004a3565b92915050565b6000806000806080858703121562000234576200023362000473565b5b600085015167ffffffffffffffff8111156200025557620002546200046e565b5b6200026387828801620001cd565b945050602085015167ffffffffffffffff8111156200028757620002866200046e565b5b6200029587828801620001cd565b9350506040620002a88782880162000200565b9250506060620002bb87828801620001b6565b91505092959194509250565b6000620002d3620002e6565b9050620002e18282620003d0565b919050565b6000604051905090565b600067ffffffffffffffff8211156200030e576200030d62000435565b5b620003198262000478565b9050602081019050919050565b600062000333826200033a565b9050919050565b600073ffffffffffffffffffffffffffffffffffffffff82169050919050565b6000819050919050565b60005b838110156200038457808201518184015260208101905062000367565b8381111562000394576000848401525b50505050565b60006002820490506001821680620003b357607f821691505b60208210811415620003ca57620003c962000406565b5b50919050565b620003db8262000478565b810181811067ffffffffffffffff82111715620003fd57620003fc62000435565b5b80604052505050565b7f4e487b7100000000000000000000000000000000000000000000000000000000600052602260045260246000fd5b7f4e487b7100000000000000000000000000000000000000000000000000000000600052604160045260246000fd5b600080fd5b600080fd5b600080fd5b600080fd5b6000601f19601f8301169050919050565b620004948162000326565b8114620004a057600080fd5b50565b620004ae816200035a565b8114620004ba57600080fd5b50565b60805160601c60a051612cce62000517600039600081816108e901528181610a4b01528181610ad50152818161144b01528181611897015261197001526000818161090d015281816109b8015261140f0152612cce6000f3fe608060405234801561001057600080fd5b50600436106101375760003560e01c80637b0a47ee116100b8578063a9059cbb1161007c578063a9059cbb146103b2578063adc879e9146103e2578063bb88b76914610400578063dd62ed3e1461041e578063de43156e1461044e578063ef5cfb8c1461046a57610137565b80637b0a47ee146102e65780637bb1ca1914610304578063810085681461033457806395d89b4114610364578063a457c2d71461038257610137565b8063313ce567116100ff578063313ce56714610208578063395093511461022657806351cff8d914610256578063659f24561461028657806370a08231146102b657610137565b806306fdde031461013c578063095ea7b31461015a57806318160ddd1461018a57806323b872dd146101a857806326476204146101d8575b600080fd5b610144610486565b6040516101519190612429565b60405180910390f35b610174600480360381019061016f9190611fa7565b610518565b60405161018191906123a1565b60405180910390f35b61019261053b565b60405161019f919061256b565b60405180910390f35b6101c260048036038101906101bd9190611f54565b610545565b6040516101cf91906123a1565b60405180910390f35b6101f260048036038101906101ed9190611eba565b610574565b6040516101ff919061256b565b60405180910390f35b61021061058c565b60405161021d9190612586565b60405180910390f35b610240600480360381019061023b9190611fa7565b610595565b60405161024d91906123a1565b60405180910390f35b610270600480360381019061026b9190611eba565b6105cc565b60405161027d91906123bc565b60405180910390f35b6102a0600480360381019061029b9190611eba565b61066c565b6040516102ad919061256b565b60405180910390f35b6102d060048036038101906102cb9190611eba565b610722565b6040516102dd919061256b565b60405180910390f35b6102ee61076a565b6040516102fb919061256b565b60405180910390f35b61031e60048036038101906103199190611eba565b610770565b60405161032b919061256b565b60405180910390f35b61034e60048036038101906103499190611eba565b610788565b60405161035b919061235d565b60405180910390f35b61036c6107bb565b6040516103799190612429565b60405180910390f35b61039c60048036038101906103979190611fa7565b61084d565b6040516103a991906123a1565b60405180910390f35b6103cc60048036038101906103c79190611fa7565b6108c4565b6040516103d991906123a1565b60405180910390f35b6103ea6108e7565b6040516103f7919061256b565b60405180910390f35b61040861090b565b604051610415919061240e565b60405180910390f35b61043860048036038101906104339190611f14565b61092f565b604051610445919061256b565b60405180910390f35b61046860048036038101906104639190612054565b6109b6565b005b610484600480360381019061047f9190611eba565b610c3a565b005b6060600380546104959061282b565b80601f01602080910402602001604051908101604052809291908181526020018280546104c19061282b565b801561050e5780601f106104e35761010080835404028352916020019161050e565b820191906000526020600020905b8154815290600101906020018083116104f157829003601f168201915b5050505050905090565b600080610523610d52565b9050610530818585610d5a565b600191505092915050565b6000600254905090565b600080610550610d52565b905061055d858285610f25565b610568858585610fb1565b60019150509392505050565b60066020528060005260406000206000915090505481565b60006012905090565b6000806105a0610d52565b90506105c18185856105b2858961092f565b6105bc9190612677565b610d5a565b600191505092915050565b600760205280600052604060002060009150905080546105eb9061282b565b80601f01602080910402602001604051908101604052809291908181526020018280546106179061282b565b80156106645780601f1061063957610100808354040283529160200191610664565b820191906000526020600020905b81548152906001019060200180831161064757829003601f168201915b505050505081565b600080600960008473ffffffffffffffffffffffffffffffffffffffff1673ffffffffffffffffffffffffffffffffffffffff16815260200190815260200160002054426106ba9190612727565b90506000600554600660008673ffffffffffffffffffffffffffffffffffffffff1673ffffffffffffffffffffffffffffffffffffffff168152602001908152602001600020548361070c91906126cd565b61071691906126cd565b90508092505050919050565b60008060008373ffffffffffffffffffffffffffffffffffffffff1673ffffffffffffffffffffffffffffffffffffffff168152602001908152602001600020549050919050565b60055481565b60096020528060005260406000206000915090505481565b60086020528060005260406000206000915054906101000a900473ffffffffffffffffffffffffffffffffffffffff1681565b6060600480546107ca9061282b565b80601f01602080910402602001604051908101604052809291908181526020018280546107f69061282b565b80156108435780601f1061081857610100808354040283529160200191610843565b820191906000526020600020905b81548152906001019060200180831161082657829003601f168201915b5050505050905090565b600080610858610d52565b90506000610866828661092f565b9050838110156108ab576040517f08c379a00000000000000000000000000000000000000000000000000000000081526004016108a29061252b565b60405180910390fd5b6108b88286868403610d5a565b60019250505092915050565b6000806108cf610d52565b90506108dc818585610fb1565b600191505092915050565b7f000000000000000000000000000000000000000000000000000000000000000081565b7f000000000000000000000000000000000000000000000000000000000000000081565b6000600160008473ffffffffffffffffffffffffffffffffffffffff1673ffffffffffffffffffffffffffffffffffffffff16815260200190815260200160002060008373ffffffffffffffffffffffffffffffffffffffff1673ffffffffffffffffffffffffffffffffffffffff16815260200190815260200160002054905092915050565b7f000000000000000000000000000000000000000000000000000000000000000073ffffffffffffffffffffffffffffffffffffffff163373ffffffffffffffffffffffffffffffffffffffff1614610a44576040517f08c379a0000000000000000000000000000000000000000000000000000000008152600401610a3b9061248b565b60405180910390fd5b84604001357f000000000000000000000000000000000000000000000000000000000000000014610ab05784604001356040517fbd407dda000000000000000000000000000000000000000000000000000000008152600401610aa7919061256b565b60405180910390fd5b6000610acc868060000190610ac591906125a1565b6000611229565b9050600061479c7f000000000000000000000000000000000000000000000000000000000000000014610b0d578383810190610b0891906120f8565b610b2f565b83836000818110610b2157610b20612904565b5b9050013560f81c60f81b60f81c5b905060018160ff161415610b4c57610b47828661129e565b610c31565b60028160ff161415610b6657610b61826113be565b610c30565b60038160ff161415610b8257610b7d828585611890565b610c2f565b60048160ff161415610bf157610bec8285858a8060000190610ba491906125a1565b8080601f016020809104026020016040519081016040528093929190818152602001838380828437600081840152601f19601f82011690508083019250505050505050611969565b610c2e565b806040517f60df9f87000000000000000000000000000000000000000000000000000000008152600401610c259190612586565b60405180910390fd5b5b5b5b50505050505050565b3373ffffffffffffffffffffffffffffffffffffffff16600860008373ffffffffffffffffffffffffffffffffffffffff1673ffffffffffffffffffffffffffffffffffffffff16815260200190815260200160002060009054906101000a900473ffffffffffffffffffffffffffffffffffffffff1673ffffffffffffffffffffffffffffffffffffffff1614610cfe576040517fea8e4eb500000000000000000000000000000000000000000000000000000000815260040160405180910390fd5b6000610d098261066c565b905060008111610d45576040517f73380d9900000000000000000000000000000000000000000000000000000000815260040160405180910390fd5b610d4e82611a07565b5050565b600033905090565b600073ffffffffffffffffffffffffffffffffffffffff168373ffffffffffffffffffffffffffffffffffffffff161415610dca576040517f08c379a0000000000000000000000000000000000000000000000000000000008152600401610dc19061250b565b60405180910390fd5b600073ffffffffffffffffffffffffffffffffffffffff168273ffffffffffffffffffffffffffffffffffffffff161415610e3a576040517f08c379a0000000000000000000000000000000000000000000000000000000008152600401610e319061246b565b60405180910390fd5b80600160008573ffffffffffffffffffffffffffffffffffffffff1673ffffffffffffffffffffffffffffffffffffffff16815260200190815260200160002060008473ffffffffffffffffffffffffffffffffffffffff1673ffffffffffffffffffffffffffffffffffffffff168152602001908152602001600020819055508173ffffffffffffffffffffffffffffffffffffffff168373ffffffffffffffffffffffffffffffffffffffff167f8c5be1e5ebec7d5bd14f71427d1e84f3dd0314c0f7b2291e5b200ac8c7c3b92583604051610f18919061256b565b60405180910390a3505050565b6000610f31848461092f565b90507fffffffffffffffffffffffffffffffffffffffffffffffffffffffffffffffff8114610fab5781811015610f9d576040517f08c379a0000000000000000000000000000000000000000000000000000000008152600401610f94906124ab565b60405180910390fd5b610faa8484848403610d5a565b5b50505050565b600073ffffffffffffffffffffffffffffffffffffffff168373ffffffffffffffffffffffffffffffffffffffff161415611021576040517f08c379a0000000000000000000000000000000000000000000000000000000008152600401611018906124eb565b60405180910390fd5b600073ffffffffffffffffffffffffffffffffffffffff168273ffffffffffffffffffffffffffffffffffffffff161415611091576040517f08c379a00000000000000000000000000000000000000000000000000000000081526004016110889061244b565b60405180910390fd5b61109c838383611ac5565b60008060008573ffffffffffffffffffffffffffffffffffffffff1673ffffffffffffffffffffffffffffffffffffffff16815260200190815260200160002054905081811015611122576040517f08c379a0000000000000000000000000000000000000000000000000000000008152600401611119906124cb565b60405180910390fd5b8181036000808673ffffffffffffffffffffffffffffffffffffffff1673ffffffffffffffffffffffffffffffffffffffff16815260200190815260200160002081905550816000808573ffffffffffffffffffffffffffffffffffffffff1673ffffffffffffffffffffffffffffffffffffffff168152602001908152602001600020600082825401925050819055508273ffffffffffffffffffffffffffffffffffffffff168473ffffffffffffffffffffffffffffffffffffffff167fddf252ad1be2c89b69c2b068fc378daa952ba7f163c4a11628f55a4df523b3ef84604051611210919061256b565b60405180910390a3611223848484611aca565b50505050565b6000808484849060148661123d9190612677565b9261124a9392919061263c565b8080601f016020809104026020016040519081016040528093929190818152602001838380828437600081840152601f19601f82011690508083019250505050505050905060148101519150509392505050565b80600660008473ffffffffffffffffffffffffffffffffffffffff1673ffffffffffffffffffffffffffffffffffffffff16815260200190815260200160002060008282546112ed9190612677565b9250508190555080600660008473ffffffffffffffffffffffffffffffffffffffff1673ffffffffffffffffffffffffffffffffffffffff16815260200190815260200160002054101561136d576040517f35278d1200000000000000000000000000000000000000000000000000000000815260040160405180910390fd5b42600960008473ffffffffffffffffffffffffffffffffffffffff1673ffffffffffffffffffffffffffffffffffffffff168152602001908152602001600020819055506113ba82611a07565b5050565b6000600660008373ffffffffffffffffffffffffffffffffffffffff1673ffffffffffffffffffffffffffffffffffffffff16815260200190815260200160002054905061140b82611a07565b60007f000000000000000000000000000000000000000000000000000000000000000073ffffffffffffffffffffffffffffffffffffffff16630be155477f00000000000000000000000000000000000000000000000000000000000000006040518263ffffffff1660e01b8152600401611486919061256b565b60206040518083038186803b15801561149e57600080fd5b505afa1580156114b2573d6000803e3d6000fd5b505050506040513d601f19601f820116820180604052508101906114d69190611ee7565b905060008173ffffffffffffffffffffffffffffffffffffffff1663d9eeebed6040518163ffffffff1660e01b8152600401604080518083038186803b15801561151f57600080fd5b505afa158015611533573d6000803e3d6000fd5b505050506040513d601f19601f820116820180604052508101906115579190611fe7565b91505080831015611594576040517f49986e7300000000000000000000000000000000000000000000000000000000815260040160405180910390fd5b6000600760008673ffffffffffffffffffffffffffffffffffffffff1673ffffffffffffffffffffffffffffffffffffffff16815260200190815260200160002080546115e09061282b565b80601f016020809104026020016040519081016040528092919081815260200182805461160c9061282b565b80156116595780601f1061162e57610100808354040283529160200191611659565b820191906000526020600020905b81548152906001019060200180831161163c57829003601f168201915b505050505090506000600660008773ffffffffffffffffffffffffffffffffffffffff1673ffffffffffffffffffffffffffffffffffffffff168152602001908152602001600020819055508273ffffffffffffffffffffffffffffffffffffffff1663095ea7b384846040518363ffffffff1660e01b81526004016116e0929190612378565b602060405180830381600087803b1580156116fa57600080fd5b505af115801561170e573d6000803e3d6000fd5b505050506040513d601f19601f820116820180604052508101906117329190612027565b508273ffffffffffffffffffffffffffffffffffffffff1663c701262682848761175c9190612727565b6040518363ffffffff1660e01b81526004016117799291906123de565b602060405180830381600087803b15801561179357600080fd5b505af11580156117a7573d6000803e3d6000fd5b505050506040513d601f19601f820116820180604052508101906117cb9190612027565b5083600660008773ffffffffffffffffffffffffffffffffffffffff1673ffffffffffffffffffffffffffffffffffffffff168152602001908152602001600020541115611845576040517fcaccb6d900000000000000000000000000000000000000000000000000000000815260040160405180910390fd5b42600960008773ffffffffffffffffffffffffffffffffffffffff1673ffffffffffffffffffffffffffffffffffffffff168152602001908152602001600020819055505050505050565b600061479c7f000000000000000000000000000000000000000000000000000000000000000014156118cf576118c883836001611229565b90506118e5565b82828101906118de9190612125565b9050809150505b80600860008673ffffffffffffffffffffffffffffffffffffffff1673ffffffffffffffffffffffffffffffffffffffff16815260200190815260200160002060006101000a81548173ffffffffffffffffffffffffffffffffffffffff021916908373ffffffffffffffffffffffffffffffffffffffff16021790555050505050565b606061479c7f000000000000000000000000000000000000000000000000000000000000000014156119a8576119a184846001611acf565b90506119ac565b8190505b80600760008773ffffffffffffffffffffffffffffffffffffffff1673ffffffffffffffffffffffffffffffffffffffff16815260200190815260200160002090805190602001906119ff929190611d0f565b505050505050565b6000611a128261066c565b9050611a7d600860008473ffffffffffffffffffffffffffffffffffffffff1673ffffffffffffffffffffffffffffffffffffffff16815260200190815260200160002060009054906101000a900473ffffffffffffffffffffffffffffffffffffffff1682611bb8565b42600960008473ffffffffffffffffffffffffffffffffffffffff1673ffffffffffffffffffffffffffffffffffffffff168152602001908152602001600020819055505050565b505050565b505050565b60606000602a67ffffffffffffffff811115611aee57611aed612933565b5b6040519080825280601f01601f191660200182016040528015611b205781602001600182028036833780820191505090505b50905060005b602a811015611bac5785858583611b3d9190612677565b818110611b4d57611b4c612904565b5b9050013560f81c60f81b828281518110611b6a57611b69612904565b5b60200101907effffffffffffffffffffffffffffffffffffffffffffffffffffffffffffff1916908160001a9053508080611ba49061285d565b915050611b26565b50809150509392505050565b600073ffffffffffffffffffffffffffffffffffffffff168273ffffffffffffffffffffffffffffffffffffffff161415611c28576040517f08c379a0000000000000000000000000000000000000000000000000000000008152600401611c1f9061254b565b60405180910390fd5b611c3460008383611ac5565b8060026000828254611c469190612677565b92505081905550806000808473ffffffffffffffffffffffffffffffffffffffff1673ffffffffffffffffffffffffffffffffffffffff168152602001908152602001600020600082825401925050819055508173ffffffffffffffffffffffffffffffffffffffff16600073ffffffffffffffffffffffffffffffffffffffff167fddf252ad1be2c89b69c2b068fc378daa952ba7f163c4a11628f55a4df523b3ef83604051611cf7919061256b565b60405180910390a3611d0b60008383611aca565b5050565b828054611d1b9061282b565b90600052602060002090601f016020900481019282611d3d5760008555611d84565b82601f10611d5657805160ff1916838001178555611d84565b82800160010185558215611d84579182015b82811115611d83578251825591602001919060010190611d68565b5b509050611d919190611d95565b5090565b5b80821115611dae576000816000905550600101611d96565b5090565b600081359050611dc181612c25565b92915050565b600081519050611dd681612c25565b92915050565b600081359050611deb81612c3c565b92915050565b600081519050611e0081612c53565b92915050565b60008083601f840112611e1c57611e1b612967565b5b8235905067ffffffffffffffff811115611e3957611e38612962565b5b602083019150836001820283011115611e5557611e54612985565b5b9250929050565b600060608284031215611e7257611e71612971565b5b81905092915050565b600081359050611e8a81612c6a565b92915050565b600081519050611e9f81612c6a565b92915050565b600081359050611eb481612c81565b92915050565b600060208284031215611ed057611ecf612994565b5b6000611ede84828501611db2565b91505092915050565b600060208284031215611efd57611efc612994565b5b6000611f0b84828501611dc7565b91505092915050565b60008060408385031215611f2b57611f2a612994565b5b6000611f3985828601611db2565b9250506020611f4a85828601611db2565b9150509250929050565b600080600060608486031215611f6d57611f6c612994565b5b6000611f7b86828701611db2565b9350506020611f8c86828701611db2565b9250506040611f9d86828701611e7b565b9150509250925092565b60008060408385031215611fbe57611fbd612994565b5b6000611fcc85828601611db2565b9250506020611fdd85828601611e7b565b9150509250929050565b60008060408385031215611ffe57611ffd612994565b5b600061200c85828601611dc7565b925050602061201d85828601611e90565b9150509250929050565b60006020828403121561203d5761203c612994565b5b600061204b84828501611df1565b91505092915050565b6000806000806000608086880312156120705761206f612994565b5b600086013567ffffffffffffffff81111561208e5761208d61298f565b5b61209a88828901611e5c565b95505060206120ab88828901611db2565b94505060406120bc88828901611e7b565b935050606086013567ffffffffffffffff8111156120dd576120dc61298f565b5b6120e988828901611e06565b92509250509295509295909350565b60006020828403121561210e5761210d612994565b5b600061211c84828501611ea5565b91505092915050565b6000806040838503121561213c5761213b612994565b5b600061214a85828601611ea5565b925050602061215b85828601611ddc565b9150509250929050565b61216e8161275b565b82525050565b61217d8161277f565b82525050565b600061218e82612604565b612198818561261a565b93506121a88185602086016127f8565b6121b181612999565b840191505092915050565b6121c5816127c2565b82525050565b60006121d68261260f565b6121e0818561262b565b93506121f08185602086016127f8565b6121f981612999565b840191505092915050565b600061221160238361262b565b915061221c826129aa565b604082019050919050565b600061223460228361262b565b915061223f826129f9565b604082019050919050565b6000612257602b8361262b565b915061226282612a48565b604082019050919050565b600061227a601d8361262b565b915061228582612a97565b602082019050919050565b600061229d60268361262b565b91506122a882612ac0565b604082019050919050565b60006122c060258361262b565b91506122cb82612b0f565b604082019050919050565b60006122e360248361262b565b91506122ee82612b5e565b604082019050919050565b600061230660258361262b565b915061231182612bad565b604082019050919050565b6000612329601f8361262b565b915061233482612bfc565b602082019050919050565b612348816127ab565b82525050565b612357816127b5565b82525050565b60006020820190506123726000830184612165565b92915050565b600060408201905061238d6000830185612165565b61239a602083018461233f565b9392505050565b60006020820190506123b66000830184612174565b92915050565b600060208201905081810360008301526123d68184612183565b905092915050565b600060408201905081810360008301526123f88185612183565b9050612407602083018461233f565b9392505050565b600060208201905061242360008301846121bc565b92915050565b6000602082019050818103600083015261244381846121cb565b905092915050565b6000602082019050818103600083015261246481612204565b9050919050565b6000602082019050818103600083015261248481612227565b9050919050565b600060208201905081810360008301526124a48161224a565b9050919050565b600060208201905081810360008301526124c48161226d565b9050919050565b600060208201905081810360008301526124e481612290565b9050919050565b60006020820190508181036000830152612504816122b3565b9050919050565b60006020820190508181036000830152612524816122d6565b9050919050565b60006020820190508181036000830152612544816122f9565b9050919050565b600060208201905081810360008301526125648161231c565b9050919050565b6000602082019050612580600083018461233f565b92915050565b600060208201905061259b600083018461234e565b92915050565b600080833560016020038436030381126125be576125bd612976565b5b80840192508235915067ffffffffffffffff8211156125e0576125df61296c565b5b6020830192506001820236038313156125fc576125fb61298a565b5b509250929050565b600081519050919050565b600081519050919050565b600082825260208201905092915050565b600082825260208201905092915050565b600080858511156126505761264f612980565b5b838611156126615761266061297b565b5b6001850283019150848603905094509492505050565b6000612682826127ab565b915061268d836127ab565b9250827fffffffffffffffffffffffffffffffffffffffffffffffffffffffffffffffff038211156126c2576126c16128a6565b5b828201905092915050565b60006126d8826127ab565b91506126e3836127ab565b9250817fffffffffffffffffffffffffffffffffffffffffffffffffffffffffffffffff048311821515161561271c5761271b6128a6565b5b828202905092915050565b6000612732826127ab565b915061273d836127ab565b9250828210156127505761274f6128a6565b5b828203905092915050565b60006127668261278b565b9050919050565b60006127788261278b565b9050919050565b60008115159050919050565b600073ffffffffffffffffffffffffffffffffffffffff82169050919050565b6000819050919050565b600060ff82169050919050565b60006127cd826127d4565b9050919050565b60006127df826127e6565b9050919050565b60006127f18261278b565b9050919050565b60005b838110156128165780820151818401526020810190506127fb565b83811115612825576000848401525b50505050565b6000600282049050600182168061284357607f821691505b60208210811415612857576128566128d5565b5b50919050565b6000612868826127ab565b91507fffffffffffffffffffffffffffffffffffffffffffffffffffffffffffffffff82141561289b5761289a6128a6565b5b600182019050919050565b7f4e487b7100000000000000000000000000000000000000000000000000000000600052601160045260246000fd5b7f4e487b7100000000000000000000000000000000000000000000000000000000600052602260045260246000fd5b7f4e487b7100000000000000000000000000000000000000000000000000000000600052603260045260246000fd5b7f4e487b7100000000000000000000000000000000000000000000000000000000600052604160045260246000fd5b600080fd5b600080fd5b600080fd5b600080fd5b600080fd5b600080fd5b600080fd5b600080fd5b600080fd5b600080fd5b600080fd5b6000601f19601f8301169050919050565b7f45524332303a207472616e7366657220746f20746865207a65726f206164647260008201527f6573730000000000000000000000000000000000000000000000000000000000602082015250565b7f45524332303a20617070726f766520746f20746865207a65726f20616464726560008201527f7373000000000000000000000000000000000000000000000000000000000000602082015250565b7f4f6e6c792073797374656d20636f6e74726163742063616e2063616c6c20746860008201527f69732066756e6374696f6e000000000000000000000000000000000000000000602082015250565b7f45524332303a20696e73756666696369656e7420616c6c6f77616e6365000000600082015250565b7f45524332303a207472616e7366657220616d6f756e742065786365656473206260008201527f616c616e63650000000000000000000000000000000000000000000000000000602082015250565b7f45524332303a207472616e736665722066726f6d20746865207a65726f20616460008201527f6472657373000000000000000000000000000000000000000000000000000000602082015250565b7f45524332303a20617070726f76652066726f6d20746865207a65726f2061646460008201527f7265737300000000000000000000000000000000000000000000000000000000602082015250565b7f45524332303a2064656372656173656420616c6c6f77616e63652062656c6f7760008201527f207a65726f000000000000000000000000000000000000000000000000000000602082015250565b7f45524332303a206d696e7420746f20746865207a65726f206164647265737300600082015250565b612c2e8161275b565b8114612c3957600080fd5b50565b612c458161276d565b8114612c5057600080fd5b50565b612c5c8161277f565b8114612c6757600080fd5b50565b612c73816127ab565b8114612c7e57600080fd5b50565b612c8a816127b5565b8114612c9557600080fd5b5056fea2646970667358221220b7d077ff91820ce84b1b780c02f24ad42969e4a90c3adabe5553a07cdec9990864736f6c63430008070033",
  "linkReferences": {},
  "deployedLinkReferences": {}
}